:0907EA0054494D453A0025640014
:0507F300D2B6C2B622DF
:0A07E000EF4E6003D2B422C2B4222F
:04062400AD07AC066C
:10062800E4FBFAAF037E007401A807088005C33312
:10063800CE33CED8F9FFEE5CFEEF5DFF1207E01275
:0D06480007F30BBB00010AEB64084A70D6F3
:010655002282
:1005EF009000007E00120624E4FDFCE583C313F5A2
:1005FF0083E58213F58230B40543828080065382EF
:10060F007F7583001207F30DBD00010CED64084CDC
:04061F0070D9AF825D
:0106230022B4
:10077900A905D2B57E00120624AF017E0012062417
:03078900C2B522D4
:10055200D2B57FBF7E00120624E4FDFCE4F583F5EC
:1005620082FBFAE583C313F583E58213F58230B487
:1005720005438280800653827F7583001207F30B46
:10058200BB00010AEB64084A70D9ED25E02408F8A3
:10059200A68308A6820DBD00010CED64084C70BC58
:0205A200C2B5E0
:0105A4002234
:1006FB00C2B5C2B6E4FD7F8E1207797DAB7F901237
:10070B0007797F811205EFEF54816007E4FD7F804D
:03071B0012077949
:01071E0022B8
:10071F008F408D41AF03AD077F80120779AD417FC9
:0B072F0082120779AD407F8402077939
:10073A008F22E522C4540F2430FF1207B0E5225459
:07074A000F2430FF0207B08D
:1005A500E4FDFF1207657BFF7A0779EA1206837D72
:1005B50006E4FF120765AF0D12073A7F3A1207B03E
:1005C5001206D77D09E4FF120765AF0B12073A7FC4
:1005D5003A1207B01206D77D0CE4FF120765AF0982
:0A05E50012073A7F0A7E000206DBCF
:1007C200752FFF7530077531F08E328F3302006A54
:10078C007B007A0079221207C27B007A0079220260
:02079C000683D2
:100751007F3812079E7F0C12079E7F0112079E7F32
:040761008002079E6D
:10079E008F80C2A5C2A61206D5C2A77F0A7E00020E
:0207AE0006DB68
:1007B0008F80C2A5D2A61206D5C2A77F0A7E0002EC
:0207C00006DB56
:060683008B408A41894210
:10068900E4F543F544AB40AA41A942854482854338
:1006990083120438FF600D1207B00544E54470E584
:0406A900054380E1A4
:0106AD00222A
:10076500EF7007ED2480F5408005ED24C0F540AF1E
:040775004002079E99
:0606D500D2A77F0A7E009F
:1006DB00E4FDFCC3ED9FEC9E5015E4FBFA0BBB0055
:0F06EB00010AEB647F4A70F50DBD00010C80E43D
:0106FA0022DD
:0600030054696D653A002E
:0D07D20001453201473B0146170248000077
:03000B0002036A83
:10036A00C0E0C0F0C083C082C0D075D000C000C059
:10037A0001C002C003C004C005C006C0070549E5A4
:10038A00497002054864887004E5486413600302F2
:10039A00041DD2B5120552C2B51205A50545B2A073
:1003AA007D0E7F01120765AF457E0012078C7F2004
:1003BA001207B07D0D7F011207657F3A1207B07DE3
:1003CA000A7F01120765AF477E0012078C7F201251
:1003DA0007B07D087F011207657F3A1207B07D05D5
:1003EA007F01120765AF467E0012078C7F20120735
:1003FA00B0E545B43B057545000547E547B43C05FE
:10040A007547000546E546B4180375460075480069
:10041A00754900D007D006D005D004D003D002D049
:0E042A0001D000D0D0D082D083D0F0D0E0320C
:100656001207511206FB7B507D597F2312071FE4B8
:10066600FD7F011207657BFF7A0079031206837509
:0D0676008902758CD1D2A9D2AFD28C80FE42
:030000000204C631
:0C04C600787FE4F6D8FD75814902050D31
:10043800BB010CE58229F582E5833AF583E0225079
:1004480006E92582F8E622BBFE06E92582F8E222C3
:0D045800E58229F582E5833AF583E49322DD
:10000E00E53B242FF8E6053B22782C300702782FAB
:10001E00E475F0011204900204652000EB7F2ED2ED
:10002E00008018EF540F2490D43440D4FF30040BCA
:10003E00EF24BFB41A0050032461FFE53C600215A3
:10004E003C053FE53F7002053E30070D782CE47508
:10005E00F001120490EF02047E0206AE7403D20782
:10006E008003E4C207F53B8B2C8A2D892EE4F53CE8
:10007E00F53EF53FE53C60077F2012004980F5759F
:10008E003DFFC201C200C202C203C205C206C208BF
:10009E00120017FF700D3007057F0012005AAF3F98
:1000AE00AE3E22B4255FC2D5C204120017FF24D083
:1000BE00B40A00501A75F00A783C30D50508B6FF20
:1000CE000106C6A426F620D5047002D20380D924D8
:1000DE00CFB41A00EF5004C2E5D20402025AD20184
:1000EE0080C6D20080C0D20280BCD2D580BAD205E2
:1000FE0080B47F201200492002077401B53C0040F5
:10010E00F112000EFF120049020082D208D20680C0
:10011E009512000EFB12000EFA12000EF94A4B70E9
:10012E0006792B7A037BFF20022EE53C602A7E00A7
:10013E008E8275830012043860060EEE653D70F0F7
:10014E00C2D5EBC0E0EAC0E0E9C0E0EE1202A1D0F9
:10015E00E0F9D0E0FAD0E0FB120465FF60AAEBC034
:10016E00E0EAC0E0E9C0E0120049D0E02401F9D095
:10017E00E03400FAD0E0FBE53D0460DCD53DD980EB
:10018E00877BFF7A02799DD202809C79108002795A
:10019E0008C206C2088008D2D5790A8004790AC23C
:1001AE00D5E53D047002F53DE4FAFDFEFF12000EAA
:1001BE00FC7B0820011312000EFD7B1030000A128A
:1001CE00000EFE12000EFF7B20EC3382D592D5502E
:1001DE0013C3E43000069FFFE49EFEE42001039D5E
:1001EE00FDE49CFCE4CBF8C201EC700CCFCECDCC80
:1001FE00E824F8F870F38017C3EF33FFEE33FEED0B
:10020E0033FDEC33FCEB33FB994002FB0FD8E9EBEB
:10021E00300105F8D0E0C448B201C0E00AEC4D4E02
:10022E004F78207B0070C2EAB53D0040BCC0E012A2
:10023E0002A3D0F0D0E0200104C4C0E0C4B201C0DB
:10024E00F0120032D0F0D5F0EB0200821204A001C1
:10025E001F5301995800F04C00EC42019D4F01A52F
:0F026E004401A54901054301AB55018F46018F9E
:10027D0045018F47034B5000F42D00F82E011B2B29
:10028D0000FC2301192003342A00B4480000011397
:10029D003F3F3F00790AA2D5200314300509B9105C
:1002AD00020404B9080104A2D5200602500104205D
:1002BD0002689202B53C005034C0E07F2030031933
:1002CD007F30A20272067205500F1202FAC202C2EC
:1002DD0006C205C2087F30800F300503E9C0E01269
:1002ED000049300503D0E0F9D0E0B53CCC3005171E
:1002FD007F30B9100C1200497F583004077F788089
:10030D0003B908031200493002057F2D0200497F11
:10031D00202008F87F2B2006F322920280CF286E32
:10032D00756C6C2900D20112000E3001F8C20178F3
:10033D003C30D50108F60200B42D50434958120047
:10034D000E2403B405004001E49003469312003AD5
:0D035D00743A12003AD203753C0402019973
:1004D200020656E493A3F8E493A34003F68001F2E4
:1004E20008DFF48029E493A3F85407240CC8C3332B
:1004F200C4540F4420C8834004F456800146F6DFFA
:10050200E4800B01020408102040809007D2E47EB0
:10051200019360BCA3FF543F30E509541FFEE493EE
:10052200A360010ECF54C025E060A840B8E493A3B5
:10053200FAE493A3F8E493A3C8C582C8CAC583CAE0
:10054200F0A3C8C582C8CAC583CADFE9DEE780BE98
:0107DF000019
:10046500BB010689828A83E0225002E722BBFE0295
:09047500E32289828A83E49322C8
:10047E00BB010689828A83F0225002F722BBFE015D
:02048E00F32257
:10049000FAE6FB0808E6F925F0F618E6CA3AF6226D
:1004A000D083D082F8E4937012740193700DA3A3EB
:1004B00093F8740193F5828883E4737402936860FF
:0604C000EFA3A3A380DFFF
:1006AE00EFB40A07740D1206B9740A309811A8999E
:1006BE00B8130CC2983098FDA899C298B811F630AC
:0706CE0099FDC299F5992284
:00000001FF
