:0300030025640071
:1007BB00752FFF7530007531038E328F3302006A4F
:100785007B007A0079221207BB7B007A007922026E
:0207950006CD8F
:04061D008C228D237B
:10062100EF14B40C00506D90063675F003A4C58329
:1006310025F0C5837302065A02066602065A0206AF
:100641006002065A02066002065A02065A02066053
:1006510002065A02066002065A7A007B1F80387A27
:10066100007B1E8032E5235403700EAE22AF23FCC3
:100671007D641204DBED4C700FAE22AF237C017D53
:10068100901204DBED4C70067A007B1D80097A0024
:0B0691007B1C8003E4FAFBAF03AE0209
:01069C00223B
:10075D007F381207977F0C1207977F011207977F3B
:04076D008002079768
:100797008F80C2A5C2A612071FC2A77F0A7E0002CA
:0207A700072524
:1007A9008F80C2A5D2A612071FC2A77F0A7E0002A8
:0207B900072512
:0606CD008B408A418942C6
:1006D300E4F543F544AB40AA41A9428544828543EE
:1006E300831204AEFF600D1207A90544E54470E5CB
:0406F300054380E15A
:0106F70022E0
:10077100EF7007ED2480F5408005ED24C0F540AF12
:040781004002079794
:06071F00D2A77F0A7E0054
:10072500E4FDFCC3ED9FEC9E5015E4FBFA0BBB000A
:0F073500010AEB647F4A70F50DBD00010C80E4F2
:010744002292
:0C07CB0054696D653A00446174653A00A1
:10074500010C00010F3B010E17010D1F01100C02DA
:070755000A00180211000068
:03000B0002036A83
:10036A00C0E0C0F0C083C082C0D075D000C000C059
:10037A0001C002C003C004C005C006C0070512E5DB
:10038A00127002051164887004E511641360030297
:10039A000493050CB2A07D0EFF120771AF0C7E000C
:1003AA001207857F201207A97D0DE4FF1207717FCE
:1003BA003A1207A97D0AE4FF120771AF0F7E0012F5
:1003CA0007857F201207A97D08E4FF1207717F3A8B
:1003DA001207A97D05E4FF120771AF0E7E0012070E
:1003EA00857F201207A97D057F01120771AF0D7E57
:1003FA00001207857F201207A97D087F0112077165
:10040A007F3A1207A97D0A7F01120771AF107E0099
:10041A001207857F201207A97D0D7F011207717FC0
:10042A003A1207A97D0E7F01120771AF0BAE0A12AD
:10043A0007857F201207A9AD0BAC0AAF1012061D63
:10044A008E088F09E50CB43C05750C00050FE50F05
:10045A00B43C05750F00050EE50EB41805750E00BF
:10046A00050DD3E50D9509E495084005750D0105BF
:10047A0010E510D3940C400B751001050BE50B70B9
:10048A0002050A751100751200D007D006D005D0F2
:10049A0004D003D002D001D000D0D0D082D083D0F3
:0404AA00F0D0E0327C
:10069D0012075DE4FDFF1207717BFF7A0779CB121C
:1006AD0006CDE4FD7F011207717BFF7A0779D11228
:1006BD0006CD758902758CD1D2A9D2AFD28C80FEB0
:0300000002059165
:0C059100787FE4F6D8FD7581440205D89F
:1004AE00BB010CE58229F582E5833AF583E0225003
:1004BE0006E92582F8E622BBFE06E92582F8E2224D
:0D04CE00E58229F582E5833AF583E4932267
:1004DB00BC000BBE0029EF8DF084FFADF022E4CC05
:1004EB00F875F008EF2FFFEE33FEEC33FCEE9DECCE
:1004FB00984005FCEE9DFE0FD5F0E9E4CEFD22ED14
:10050B00F8F5F0EE8420D21CFEADF075F008EF2F5D
:10051B00FFED33FD4007985006D5F0F222C398FD4E
:05052B000FD5F0EA22EB
:10000E00E53B242FF8E6053B22782C300702782FAB
:10001E00E475F00112055B0205302000EB7F2ED255
:10002E00008018EF540F2490D43440D4FF30040BCA
:10003E00EF24BFB41A0050032461FFE53C600215A3
:10004E003C053FE53F7002053E30070D782CE47508
:10005E00F00112055BEF0205490206F87403D207A0
:10006E008003E4C207F53B8B2C8A2D892EE4F53CE8
:10007E00F53EF53FE53C60077F2012004980F5759F
:10008E003DFFC201C200C202C203C205C206C208BF
:10009E00120017FF700D3007057F0012005AAF3F98
:1000AE00AE3E22B4255FC2D5C204120017FF24D083
:1000BE00B40A00501A75F00A783C30D50508B6FF20
:1000CE000106C6A426F620D5047002D20380D924D8
:1000DE00CFB41A00EF5004C2E5D20402025AD20184
:1000EE0080C6D20080C0D20280BCD2D580BAD205E2
:1000FE0080B47F201200492002077401B53C0040F5
:10010E00F112000EFF120049020082D208D20680C0
:10011E009512000EFB12000EFA12000EF94A4B70E9
:10012E0006792B7A037BFF20022EE53C602A7E00A7
:10013E008E827583001204AE60060EEE653D70F081
:10014E00C2D5EBC0E0EAC0E0E9C0E0EE1202A1D0F9
:10015E00E0F9D0E0FAD0E0FB120530FF60AAEBC068
:10016E00E0EAC0E0E9C0E0120049D0E02401F9D095
:10017E00E03400FAD0E0FBE53D0460DCD53DD980EB
:10018E00877BFF7A02799DD202809C79108002795A
:10019E0008C206C2088008D2D5790A8004790AC23C
:1001AE00D5E53D047002F53DE4FAFDFEFF12000EAA
:1001BE00FC7B0820011312000EFD7B1030000A128A
:1001CE00000EFE12000EFF7B20EC3382D592D5502E
:1001DE0013C3E43000069FFFE49EFEE42001039D5E
:1001EE00FDE49CFCE4CBF8C201EC700CCFCECDCC80
:1001FE00E824F8F870F38017C3EF33FFEE33FEED0B
:10020E0033FDEC33FCEB33FB994002FB0FD8E9EBEB
:10021E00300105F8D0E0C448B201C0E00AEC4D4E02
:10022E004F78207B0070C2EAB53D0040BCC0E012A2
:10023E0002A3D0F0D0E0200104C4C0E0C4B201C0DB
:10024E00F0120032D0F0D5F0EB02008212056B01F5
:10025E001F5301995800F04C00EC42019D4F01A52F
:0F026E004401A54901054301AB55018F46018F9E
:10027D0045018F47034B5000F42D00F82E011B2B29
:10028D0000FC2301192003342A00B4480000011397
:10029D003F3F3F00790AA2D5200314300509B9105C
:1002AD00020404B9080104A2D5200602500104205D
:1002BD0002689202B53C005034C0E07F2030031933
:1002CD007F30A20272067205500F1202FAC202C2EC
:1002DD0006C205C2087F30800F300503E9C0E01269
:1002ED000049300503D0E0F9D0E0B53CCC3005171E
:1002FD007F30B9100C1200497F583004077F788089
:10030D0003B908031200493002057F2D0200497F11
:10031D00202008F87F2B2006F322920280CF286E32
:10032D00756C6C2900D20112000E3001F8C20178F3
:10033D003C30D50108F60200B42D50434958120047
:10034D000E2403B405004001E49003469312003AD5
:0D035D00743A12003AD203753C0402019973
:10059D0002069DE493A3F8E493A34003F68001F2D1
:1005AD0008DFF48029E493A3F85407240CC8C3335F
:1005BD00C4540F4420C8834004F456800146F6DF2E
:1005CD00E4800B0102040810204080900745E47E72
:1005DD00019360BCA3FF543F30E509541FFEE49323
:1005ED00A360010ECF54C025E060A840B8E493A3EA
:1005FD00FAE493A3F8E493A3C8C582C8CAC583CA15
:10060D00F0A3C8C582C8CAC583CADFE9DEE780BECC
:01075C00009C
:10053000BB010689828A83E0225002E722BBFE02C9
:09054000E32289828A83E49322FC
:10054900BB010689828A83F0225002F722BBFE0191
:02055900F3228B
:10055B00FAE6FB0808E6F925F0F618E6CA3AF622A1
:10056B00D083D082F8E4937012740193700DA3A31F
:10057B0093F8740193F5828883E473740293686033
:06058B00EFA3A3A380DF33
:1006F800EFB40A07740D120703740A309811A89909
:10070800B8130CC2983098FDA899C298B811F63061
:0707180099FDC299F5992239
:00000001FF
